{
  "contractName": "NovaDoxPaymentSplitter",
  "abi": [
    {
      "inputs": [],
      "stateMutability": "nonpayable",
      "type": "constructor"
    },
    {
      "anonymous": false,
      "inputs": [
        {
          "indexed": true,
          "internalType": "address",
          "name": "previousOwner",
          "type": "address"
        },
        {
          "indexed": true,
          "internalType": "address",
          "name": "newOwner",
          "type": "address"
        }
      ],
      "name": "OwnershipTransferred",
      "type": "event"
    },
    {
      "inputs": [],
      "name": "owner",
      "outputs": [
        {
          "internalType": "address",
          "name": "",
          "type": "address"
        }
      ],
      "stateMutability": "view",
      "type": "function",
      "constant": true
    },
    {
      "inputs": [
        {
          "internalType": "uint256",
          "name": "",
          "type": "uint256"
        }
      ],
      "name": "recipients",
      "outputs": [
        {
          "internalType": "address",
          "name": "",
          "type": "address"
        }
      ],
      "stateMutability": "view",
      "type": "function",
      "constant": true
    },
    {
      "inputs": [],
      "name": "renounceOwnership",
      "outputs": [],
      "stateMutability": "nonpayable",
      "type": "function"
    },
    {
      "inputs": [
        {
          "internalType": "address",
          "name": "newOwner",
          "type": "address"
        }
      ],
      "name": "transferOwnership",
      "outputs": [],
      "stateMutability": "nonpayable",
      "type": "function"
    },
    {
      "stateMutability": "payable",
      "type": "receive",
      "payable": true
    },
    {
      "inputs": [],
      "name": "getBalance",
      "outputs": [
        {
          "internalType": "uint256",
          "name": "",
          "type": "uint256"
        }
      ],
      "stateMutability": "view",
      "type": "function",
      "constant": true
    },
    {
      "inputs": [
        {
          "internalType": "address payable[]",
          "name": "_address",
          "type": "address[]"
        },
        {
          "internalType": "uint256[]",
          "name": "_percentage",
          "type": "uint256[]"
        }
      ],
      "name": "addRecipients",
      "outputs": [
        {
          "internalType": "bool",
          "name": "success",
          "type": "bool"
        }
      ],
      "stateMutability": "nonpayable",
      "type": "function"
    },
    {
      "inputs": [],
      "name": "payRecipients",
      "outputs": [
        {
          "internalType": "bool",
          "name": "success",
          "type": "bool"
        }
      ],
      "stateMutability": "payable",
      "type": "function",
      "payable": true
    }
  ],
  "bytecode": "0x6080604052600060025534801561001557600080fd5b5061003261002761003760201b60201c565b61003f60201b60201c565b610103565b600033905090565b60008060009054906101000a900473ffffffffffffffffffffffffffffffffffffffff169050816000806101000a81548173ffffffffffffffffffffffffffffffffffffffff021916908373ffffffffffffffffffffffffffffffffffffffff1602179055508173ffffffffffffffffffffffffffffffffffffffff168173ffffffffffffffffffffffffffffffffffffffff167f8be0079c531659141344cd1fd0a4f28419497f9722a3daafe3b4186f6b6457e060405160405180910390a35050565b611050806101126000396000f3fe6080604052600436106100745760003560e01c80639dd509cb1161004e5780639dd509cb14610130578063c633791f1461016d578063d1bc76a11461018b578063f2fde38b146101c8576100be565b806312065fe0146100c3578063715018a6146100ee5780638da5cb5b14610105576100be565b366100be57600034116100bc576040517f08c379a00000000000000000000000000000000000000000000000000000000081526004016100b39061088c565b60405180910390fd5b005b600080fd5b3480156100cf57600080fd5b506100d86101f1565b6040516100e591906108c5565b60405180910390f35b3480156100fa57600080fd5b50610103610201565b005b34801561011157600080fd5b5061011a610215565b6040516101279190610921565b60405180910390f35b34801561013c57600080fd5b5061015760048036038101906101529190610a01565b61023e565b6040516101649190610a9d565b60405180910390f35b610175610422565b6040516101829190610a9d565b60405180910390f35b34801561019757600080fd5b506101b260048036038101906101ad9190610ae4565b6105ec565b6040516101bf9190610921565b60405180910390f35b3480156101d457600080fd5b506101ef60048036038101906101ea9190610b3d565b61061f565b005b60006101fb6106a3565b47905090565b6102096106a3565b6102136000610721565b565b60008060009054906101000a900473ffffffffffffffffffffffffffffffffffffffff16905090565b60006102486106a3565b6000600281905550600085859050848490501461029a576040517f08c379a000000000000000000000000000000000000000000000000000000000815260040161029190610bdc565b60405180910390fd5b60005b848490508110156103ad578686828181106102bb576102ba610bfc565b5b90506020020160208101906102d09190610c69565b60036000600254815260200190815260200160002060006101000a81548173ffffffffffffffffffffffffffffffffffffffff021916908373ffffffffffffffffffffffffffffffffffffffff16021790555084848281811061033657610335610bfc565b5b9050602002013560046000838152602001908152602001600020819055506002600081548092919061036790610cc5565b919050555061039885858381811061038257610381610bfc565b5b90506020020135836107e590919063ffffffff16565b915080806103a590610cc5565b91505061029d565b506103c26064826107fb90919063ffffffff16565b9050606381101580156103d6575060648111155b610415576040517f08c379a000000000000000000000000000000000000000000000000000000000815260040161040c90610d5a565b60405180910390fd5b6001915050949350505050565b600061042c6106a3565b600047905060008111610474576040517f08c379a000000000000000000000000000000000000000000000000000000000815260040161046b90610dec565b60405180910390fd5b6104a26064610494670de0b6b3a76400008461081190919063ffffffff16565b6107fb90919063ffffffff16565b60018190555060005b6002548110156105e3576003600082815260200190815260200160002060009054906101000a900473ffffffffffffffffffffffffffffffffffffffff1673ffffffffffffffffffffffffffffffffffffffff166108fc610557670de0b6b3a7640000610549606461053b600460008981526020019081526020016000205460015461081190919063ffffffff16565b6107fb90919063ffffffff16565b6107fb90919063ffffffff16565b9081150290604051600060405180830381858888f19350505050158015610582573d6000803e3d6000fd5b506003600082815260200190815260200160002060006101000a81549073ffffffffffffffffffffffffffffffffffffffff0219169055600460008281526020019081526020016000206000905580806105db90610cc5565b9150506104ab565b50600191505090565b60036020528060005260406000206000915054906101000a900473ffffffffffffffffffffffffffffffffffffffff1681565b6106276106a3565b600073ffffffffffffffffffffffffffffffffffffffff168173ffffffffffffffffffffffffffffffffffffffff161415610697576040517f08c379a000000000000000000000000000000000000000000000000000000000815260040161068e90610e7e565b60405180910390fd5b6106a081610721565b50565b6106ab610827565b73ffffffffffffffffffffffffffffffffffffffff166106c9610215565b73ffffffffffffffffffffffffffffffffffffffff161461071f576040517f08c379a000000000000000000000000000000000000000000000000000000000815260040161071690610eea565b60405180910390fd5b565b60008060009054906101000a900473ffffffffffffffffffffffffffffffffffffffff169050816000806101000a81548173ffffffffffffffffffffffffffffffffffffffff021916908373ffffffffffffffffffffffffffffffffffffffff1602179055508173ffffffffffffffffffffffffffffffffffffffff168173ffffffffffffffffffffffffffffffffffffffff167f8be0079c531659141344cd1fd0a4f28419497f9722a3daafe3b4186f6b6457e060405160405180910390a35050565b600081836107f39190610f0a565b905092915050565b600081836108099190610f8f565b905092915050565b6000818361081f9190610fc0565b905092915050565b600033905090565b600082825260208201905092915050565b7f54686520616d6f756e74206d75737420626520686967686572207468616e2030600082015250565b600061087660208361082f565b915061088182610840565b602082019050919050565b600060208201905081810360008301526108a581610869565b9050919050565b6000819050919050565b6108bf816108ac565b82525050565b60006020820190506108da60008301846108b6565b92915050565b600073ffffffffffffffffffffffffffffffffffffffff82169050919050565b600061090b826108e0565b9050919050565b61091b81610900565b82525050565b60006020820190506109366000830184610912565b92915050565b600080fd5b600080fd5b600080fd5b600080fd5b600080fd5b60008083601f84011261096b5761096a610946565b5b8235905067ffffffffffffffff8111156109885761098761094b565b5b6020830191508360208202830111156109a4576109a3610950565b5b9250929050565b60008083601f8401126109c1576109c0610946565b5b8235905067ffffffffffffffff8111156109de576109dd61094b565b5b6020830191508360208202830111156109fa576109f9610950565b5b9250929050565b60008060008060408587031215610a1b57610a1a61093c565b5b600085013567ffffffffffffffff811115610a3957610a38610941565b5b610a4587828801610955565b9450945050602085013567ffffffffffffffff811115610a6857610a67610941565b5b610a74878288016109ab565b925092505092959194509250565b60008115159050919050565b610a9781610a82565b82525050565b6000602082019050610ab26000830184610a8e565b92915050565b610ac1816108ac565b8114610acc57600080fd5b50565b600081359050610ade81610ab8565b92915050565b600060208284031215610afa57610af961093c565b5b6000610b0884828501610acf565b91505092915050565b610b1a81610900565b8114610b2557600080fd5b50565b600081359050610b3781610b11565b92915050565b600060208284031215610b5357610b5261093c565b5b6000610b6184828501610b28565b91505092915050565b7f546865206e756d626572206f662053686172657320616e64204f776e6572732060008201527f6469646e2774206d617463680000000000000000000000000000000000000000602082015250565b6000610bc6602c8361082f565b9150610bd182610b6a565b604082019050919050565b60006020820190508181036000830152610bf581610bb9565b9050919050565b7f4e487b7100000000000000000000000000000000000000000000000000000000600052603260045260246000fd5b6000610c36826108e0565b9050919050565b610c4681610c2b565b8114610c5157600080fd5b50565b600081359050610c6381610c3d565b92915050565b600060208284031215610c7f57610c7e61093c565b5b6000610c8d84828501610c54565b91505092915050565b7f4e487b7100000000000000000000000000000000000000000000000000000000600052601160045260246000fd5b6000610cd0826108ac565b91507fffffffffffffffffffffffffffffffffffffffffffffffffffffffffffffffff821415610d0357610d02610c96565b5b600182019050919050565b7f50657263656e746167657320617265206e6f742076616c696400000000000000600082015250565b6000610d4460198361082f565b9150610d4f82610d0e565b602082019050919050565b60006020820190508181036000830152610d7381610d37565b9050919050565b7f4e6f2066756e64732068617665206265656e2073656e7420746f20746865206360008201527f6f6e747261637400000000000000000000000000000000000000000000000000602082015250565b6000610dd660278361082f565b9150610de182610d7a565b604082019050919050565b60006020820190508181036000830152610e0581610dc9565b9050919050565b7f4f776e61626c653a206e6577206f776e657220697320746865207a65726f206160008201527f6464726573730000000000000000000000000000000000000000000000000000602082015250565b6000610e6860268361082f565b9150610e7382610e0c565b604082019050919050565b60006020820190508181036000830152610e9781610e5b565b9050919050565b7f4f776e61626c653a2063616c6c6572206973206e6f7420746865206f776e6572600082015250565b6000610ed460208361082f565b9150610edf82610e9e565b602082019050919050565b60006020820190508181036000830152610f0381610ec7565b9050919050565b6000610f15826108ac565b9150610f20836108ac565b9250827fffffffffffffffffffffffffffffffffffffffffffffffffffffffffffffffff03821115610f5557610f54610c96565b5b828201905092915050565b7f4e487b7100000000000000000000000000000000000000000000000000000000600052601260045260246000fd5b6000610f9a826108ac565b9150610fa5836108ac565b925082610fb557610fb4610f60565b5b828204905092915050565b6000610fcb826108ac565b9150610fd6836108ac565b9250817fffffffffffffffffffffffffffffffffffffffffffffffffffffffffffffffff048311821515161561100f5761100e610c96565b5b82820290509291505056fea2646970667358221220250e30fc265abc4ed2c907e01fa7d05b28f0010b0da90b019b489c376dde43c864736f6c634300080a0033",
  "immutableReferences": {},
  "source": "// SPDX-License-Identifier: MIT\r\npragma solidity ^0.8.9;\r\n\r\nimport \"@openzeppelin/contracts/access/Ownable.sol\";\r\nimport \"@openzeppelin/contracts/utils/math/SafeMath.sol\";\r\n\r\ncontract NovaDoxPaymentSplitter is Ownable {\r\n    using SafeMath for uint256;\r\n\r\n    // VARIABLES\r\n    uint256 internal amountForCalc;\r\n    uint256 totalRecipients = 0;\r\n\r\n    // MAPPING (manages the users and their shares)\r\n    mapping (uint256 => address) public recipients;\r\n    mapping (uint256 => uint256) internal shares;\r\n\r\n    constructor() {\r\n\r\n    }\r\n\r\n    receive() external payable {\r\n        require(msg.value > 0, \"The amount must be higher than 0\");\r\n    }\r\n\r\n    function getBalance() public view onlyOwner returns(uint256) {\r\n        return address(this).balance;\r\n    }\r\n\r\n    function addRecipients(address payable[] calldata _address, uint256[] calldata _percentage) external onlyOwner returns (bool success) {\r\n        totalRecipients = 0;\r\n        uint256 percentageSum = 0;\r\n        // Make sure that the added recipient doesn't hurt the integrity of the data constraint\r\n        require(_percentage.length == _address.length, \"The number of Shares and Owners didn't match\");\r\n        \r\n        for (uint256 i = 0; i < _percentage.length; i++) {           \r\n            recipients[totalRecipients] = _address[i];\r\n            shares[i] = _percentage[i];\r\n            totalRecipients++;\r\n            // Update the total percentage monitoring    \r\n            percentageSum = percentageSum.add(_percentage[i]);\r\n        }\r\n\r\n        percentageSum = percentageSum.div(100);\r\n        // 1% rounding error can be considered at the worst case\r\n        require(percentageSum  >= 99 && percentageSum <= 100, \"Percentages are not valid\");                \r\n        return true;\r\n    }\r\n\r\n    function payRecipients() external onlyOwner payable returns (bool success) {\r\n        uint256 contractBalance = address(this).balance;\r\n\r\n        // Validate that funds have been deposited in the contract\r\n        require (contractBalance > 0, \"No funds have been sent to the contract\");\r\n\r\n        //Multiply by 10^18 to avoid floating point error. \r\n        //Then divide by 100 to get 1% of contract balance\r\n        amountForCalc = contractBalance.mul(1e18).div(100);\r\n\r\n        // Go over each mapping item and trasfer the relative percentage of funds to its supplied address\r\n        // divide by 10^18 as we have considered 18 decimal places to avoid floating point rounding errors\r\n        for (uint256 i = 0; i < totalRecipients; i++) {\r\n            payable(recipients[i]).transfer(amountForCalc.mul(shares[i]).div(100).div(1e18));\r\n            // Clean up mappings\r\n            delete recipients[i];\r\n            delete shares[i];\r\n        }\r\n        return true;\r\n    }\r\n}",
  "sourcePath": "D:\\Freelancing\\NFT_Payment_Splitter\\NFT_Payment_Splitter\\contracts\\NovaDoxPaymentSplitter.sol",
  "compiler": {
    "name": "solc",
    "version": "0.8.10+commit.fc410830.Emscripten.clang"
  },
  "schemaVersion": "3.4.4",
  "updatedAt": "2022-09-30T17:42:45.939Z",
  "networkType": "ethereum",
  "devdoc": {
    "kind": "dev",
    "methods": {
      "owner()": {
        "details": "Returns the address of the current owner."
      },
      "renounceOwnership()": {
        "details": "Leaves the contract without owner. It will not be possible to call `onlyOwner` functions anymore. Can only be called by the current owner. NOTE: Renouncing ownership will leave the contract without an owner, thereby removing any functionality that is only available to the owner."
      },
      "transferOwnership(address)": {
        "details": "Transfers ownership of the contract to a new account (`newOwner`). Can only be called by the current owner."
      }
    },
    "version": 1
  },
  "userdoc": {
    "kind": "user",
    "methods": {},
    "version": 1
  }
}